:020000020000FC
:10000000B89AB99ABA9ABB98C19A50E0C0980000C1
:10001000C09A0000C1980000C29A0000C298000077
:100020002AD029D028D0F2CF00E8652F062311F07E
:10003000C19801C0C19AC09A0000C09888940795E1
:10004000A1F7C29A0000C29816D0E0CF00E8FEDF08
:1000500018951395B39B2395B399339501D00895C3
:1000600076E886E392E09A950000E9F78A95D1F761
:100070007A95B9F7089577EC88EE9BE29A9500009F
:0C008000E9F78A95D1F77A95B9F7089551
:00000001FF
